S01600004D4F434B5F50726F6A65637430312E737265634D
S21400A0000070002091A50000F9A50000F9A5000049
S21400A010F9A50000F9A50000F9A500000000000061
S21400A02000000000000000000000000071B4000006
S21400A030F9A5000000000000F9A50000F9A5000041
S21400A040F9A50000F9A50000F9A50000F9A5000093
S21400A050F9A50000F9A50000F9A50000F9A5000083
S21400A060F9A50000F9A50000F9A50000F9A5000073
S21400A070F9A50000F9A50000F9A50000F9A5000063
S21400A3F0F9A50000F9A50000F9A50000FFFFFFFF82
S21400A400FFFFFFFFFFFFFFFFFFFFFFFFFE7FFFFFD8
S21400A4100348044B834202D0034B03B118477047EE
S21400A420C08EFF1FC08EFF1F0000000005480649B3
S21400A4300B1AD90F01EBA301491002D0034B03B14D
S21400A44018477047C08EFF1FC08EFF1F0000000019
S21400A45010B5064C237843B9FFF7DAFF044B13B167
S21400A4600448AFF300800123237010BD00000020D5
S21400A47000000000DC01010008B5044B1BB10449D4
S21400A4800448AFF30080BDE80840CFE700000000B6
S21400A49004000020DC010100002A01D002F5807AC9
S21400A4A0704700BF162031A1ABBE30484168002976
S21400A4B001D0364A11600168002901D13249016095
S21400A4C08168C2682A4B002900D00B469D46FFF7DC
S21400A4D0E3FF00218B460F462648274A121A01F052
S21400A4E01DF805F001FC15202649ABBE2549096874
S21400A4F0002001B40B780131002B15D0202BF9D0A9
S21400A500222B01D0272B01D11A0001E0202201398D
S21400A51002B401300B780131002B05D09A42F9D1F4
S21400A52000224B1E1A70E5E76946020092006A4454
S21400A5306B469A4206D9043A14681D6815601C607A
S21400A5400433F6E76C460725AC43A54604000D0029
S21400A5500A48002802D00A4804F068FC00F0BAFF57
S21400A5602000290000F06AFF00F0A4FF0084FF1F0F
S21400A57000700020000000200C0100202DEE0000DE
S21400A5804DD500001085FF1F10010020100500208B
S21400A59072B64FF000014FF000024FF000034FF08C
S21400A5A000044FF000054FF000064FF00007B846D5
S21400A5B0B946BA46BB46BC460A490B4A521A013A45
S21400A5C005DD0020042308601944043AFBDA074836
S21400A5D08546074880470748804762B6FFF762FF10
S21400A5E0FEE700000080FF1F0070002000700020C3
S21400A5F00DB40000E5B20000FFF7FEBF000000004B
S21400A60001F0FF01102A2BDB10F0070F08D010F81E
S21400A610013B013A8B422DD010F0070F42B3F6D122
S21400A620F0B441EA012141EA014122F007047FF03B
S21400A63000070023F0E80256083C85EA010586EA92
S21400A640010685FA47F5A3FA87F586FA47F6A5FACE
S21400A65087F68EB9EED1F0BC01F0FF0102F00702DA
S21400A66032B110F8013B013A83EA010313B1F8D185
S21400A6700020704701387047002D06BF3546033866
S21400A680073815F0010F07D1013015F4807F02BF9F
S21400A690013015F4C03F0130F0BC0138704700BFF0
S21400A6A0034613F8012B002AFBD1181A013870470D
S21400A6B081F0004102E000BF83F0004330B54FEA6E
S21400A6C041044FEA430594EA050F08BF90EA020FDB
S21400A6D01FBF54EA000C55EA020C7FEA645C7FEA6E
S21400A6E0655C00F0E2804FEA5454D4EB5555B8BF91
S21400A6F06D420CDD2C4480EA020281EA030382EA02
S21400A700000083EA010180EA020281EA0303362D93
S21400A71088BF30BD11F0004F4FEA01314FF4801C66
S21400A7204CEA113102D0404261EB410113F0004F78
S21400A7304FEA03334CEA133302D0524263EB43032F
S21400A74094EA050F00F0A780A4F10104D5F1200ECD
S21400A7500DDB02FA0EFC22FA05F2801841F1000128
S21400A76003FA0EF2801843FA05F359410EE0A5F1FC
S21400A77020050EF1200E012A03FA0EFC28BF4CF02D
S21400A780020C43FA05F3C01851EBE37101F00045E3
S21400A79007D54FF0000EDCF1000C7EEB00006EEBF0
S21400A7A00101B1F5801F1BD3B1F5001F0CD349087A
S21400A7B05FEA30004FEA3C0C04F101044FEA4452D1
S21400A7C012F5800F80F09A80BCF1004F08BF5FEA58
S21400A7D0500C50F1000041EB045141EA050130BD38
S21400A7E05FEA4C0C404141EB0101013C28BFB1F54A
S21400A7F0801FE9D291F0000F04BF01460020B1FA95
S21400A80081F308BF2033A3F10B03B3F120020CDA67
S21400A8100C3208DD02F1140CC2F10C0201FA0CF045
S21400A82021FA02F10CE002F11402D8BFC2F1200CAA
S21400A83001FA02F120FA0CFCDCBF41EA0C01904060
S21400A840E41AA2BF01EB0451294330BD6FEA0404A9
S21400A8501F3C1CDA0C340EDC04F11404C4F1200294
S21400A86020FA04F001FA02F340EA030021FA04F3A6
S21400A87045EA030130BDC4F10C04C4F1200220FAFD
S21400A88002F001FA04F340EA0300294630BD21FA3B
S21400A89004F0294630BD94F0000F83F4801306BF01
S21400A8A081F480110134013D4EE77FEA645C18BFF5
S21400A8B07FEA655C29D094EA050F08BF90EA020F8C
S21400A8C005D054EA000C04BF1946104630BD91EA84
S21400A8D0030F1EBF0021002030BD5FEA545C05D187
S21400A8E04000494128BF41F0004130BD14F58004C6
S21400A8F03CBF01F5801130BD01F0004545F0FE413A
S21400A90041F470014FF0000030BD7FEA645C1ABF6E
S21400A910194610467FEA655C1CBF0B46024650EAA5
S21400A920013406BF52EA033591EA030F41F40021D1
S21400A93030BD00BF90F0000F04BF0021704730B557
S21400A9404FF4806404F132044FF000054FF000012C
S21400A95050E700BF90F0000F04BF0021704730B5ED
S21400A9604FF4806404F1320410F0004548BF4042C2
S21400A9704FF000013EE700BF42004FEAE2014FEA17
S21400A98031014FEA02701FBF12F07F4393F07F4FF2
S21400A99081F06051704732F07F4208BF704793F0F5
S21400A9A07F4F04BF41F40021704730B54FF4607408
S21400A9B001F0004521F000411CE700BF50EA01020B
S21400A9C008BF704730B54FF000050AE050EA0102B4
S21400A9D008BF704730B511F0004502D5404261EB24
S21400A9E041014FF4806404F132045FEA915C3FF465
S21400A9F0D8AE4FF003025FEADC0C18BF03325FEA02
S21400AA00DC0C18BF033202EBDC02C2F1200300FAB2
S21400AA1003FC20FA02F001FA03FE40EA0E0021FAD7
S21400AA2002F11444BDE600BF70B54FF0FF0C4CF4C5
S21400AA30E06C1CEA11541DBF1CEA135594EA0C0F77
S21400AA4095EA0C0F00F0DEF82C4481EA030621EAB2
S21400AA504C5123EA4C5350EA013518BF52EA0335ED
S21400AA6041F4801143F4801338D0A0FB02CE4FF09F
S21400AA700005E1FB02E506F00042E0FB03E54FF0CF
S21400AA800006E1FB03569CF0000F18BF4EF0010EC7
S21400AA90A4F1FF04B6F5007F64F5407404D25FEAC3
S21400AAA04E0E6D4146EB060642EAC62141EA555176
S21400AAB04FEAC52040EA5E504FEACE2EB4F1FD0CB8
S21400AAC088BFBCF5E06F1ED8BEF1004F08BF5FEA36
S21400AAD0500E50F1000041EB045170BD06F00046E8
S21400AAE046EA010140EA020081EA0301B4EB5C0495
S21400AAF0C2BFD4EB0C0541EA045170BD41F480118D
S21400AB004FF0000E013C00F3AB8014F1360FDEBFB1
S21400AB10002001F0004170BDC4F10004203C35DA8D
S21400AB200C341BDC04F11404C4F1200500FA05F310
S21400AB3020FA04F001FA05F240EA020001F00042B1
S21400AB4021F0004110EBD37021FA04F642EB060127
S21400AB505EEA430E08BF20EAD37070BDC4F10C0451
S21400AB60C4F1200500FA04F320FA05F001FA04F215
S21400AB7040EA020001F0004110EBD37041F1000101
S21400AB805EEA430E08BF20EAD37070BDC4F120050C
S21400AB9000FA05F24EEA020E20FA04F301FA05F274
S21400ABA043EA020321FA04F001F0004121FA04F21C
S21400ABB020EA020000EBD3705EEA430E08BF20EAEC
S21400ABC0D37070BD94F0000F0FD101F00046400026
S21400ABD041EB010111F4801F08BF013CF7D041EAA8
S21400ABE0060195F0000F18BF704703F000465200AC
S21400ABF043EB030313F4801F08BF013DF7D043EA7D
S21400AC000603704794EA0C0F0CEA135518BF95EA32
S21400AC100C0F0CD050EA410618BF52EA4306D1D1B9
S21400AC2081EA030101F000414FF0000070BD50EAD8
S21400AC30410606BF1046194652EA430619D094EA62
S21400AC400C0F02D150EA013613D195EA0C0F05D14C
S21400AC5052EA03361CBF104619460AD181EA0301A0
S21400AC6001F0004141F0FE4141F470014FF0000058
S21400AC7070BD41F0FE4141F4780170BD70B54FF0F3
S21400AC80FF0C4CF4E06C1CEA11541DBF1CEA135573
S21400AC9094EA0C0F95EA0C0F00F0A7F8A4EB050455
S21400ACA081EA030E52EA03354FEA013100F088804C
S21400ACB04FEA03334FF0805545EA131343EA126315
S21400ACC04FEA022245EA111545EA10654FEA0026CA
S21400ACD00EF000419D4208BF964244F1FD0404F583
S21400ACE0407402D25B084FEA3202B61A65EB0305DF
S21400ACF05B084FEA32024FF480104FF4002CB6EB9C
S21400AD00020E75EB030E22BFB61A754640EA0C001B
S21400AD105B084FEA3202B6EB020E75EB030E22BF5B
S21400AD20B61A754640EA5C005B084FEA3202B6EB9C
S21400AD30020E75EB030E22BFB61A754640EA9C005B
S21400AD405B084FEA3202B6EB020E75EB030E22BF2B
S21400AD50B61A754640EADC0055EA060E18D04FEAE9
S21400AD60051545EA16754FEA06164FEAC30343EA89
S21400AD7052734FEAC2025FEA1C1CC0D111F4801F56
S21400AD800BD141EA00014FF000004FF0004CB6E74F
S21400AD9011F4801F04BF01430020B4F1FD0C88BFEE
S21400ADA0BCF5E06F3FF6AFAEB5EB030C04BFB6EBF9
S21400ADB0020C5FEA500C50F1000041EB045170BDEC
S21400ADC00EF0004E4EEA113114EB5C04C2BFD4EB19
S21400ADD00C0541EA045170BD41F480114FF0000E9D
S21400ADE0013C90E645EA060E8DE60CEA135594EA19
S21400ADF00C0F08BF95EA0C0F3FF43BAF94EA0C0F1C
S21400AE000AD150EA01347FF434AF95EA0C0F7FF490
S21400AE1025AF104619462CE795EA0C0F06D152EAE4
S21400AE2003353FF4FDAE1046194622E750EA4106C8
S21400AE3018BF52EA43067FF4C5AE50EA41047FF4D9
S21400AE400DAF52EA43057FF4EBAE12E74FF0FF3C3E
S21400AE5006E000BF4FF0010C02E000BF4FF0010C0F
S21400AE604DF804CD4FEA410C7FEA6C5C4FEA430C88
S21400AE7018BF7FEA6C5C1BD001B050EA410C0CBFD7
S21400AE8052EA430C91EA030F02BF90EA020F002039
S21400AE90704710F1000F91EA030F58BF994208BFA0
S21400AEA090422CBFD8176FEAE37040F0010070475D
S21400AEB04FEA410C7FEA6C5C02D150EA013C07D1B4
S21400AEC04FEA430C7FEA6C5CD6D152EA033CD3D0FF
S21400AED05DF8040B704700BF8446104662468C46F9
S21400AEE01946634600E000BF01B5FFF7B7FF00282C
S21400AEF048BF10F1000F01BD4DF808EDFFF7F4FF55
S21400AF000CBF012000205DF808FB00BF4DF808EDDF
S21400AF10FFF7EAFF34BF012000205DF808FB00BF02
S21400AF204DF808EDFFF7E0FF94BF012000205DF824
S21400AF3008FB00BF4DF808EDFFF7CEFF94BF0120D9
S21400AF4000205DF808FB00BF4DF808EDFFF7C4FFD2
S21400AF5034BF012000205DF808FB00BF4FEA410C1B
S21400AF607FEA6C5C02D150EA013C0AD14FEA430CFE
S21400AF707FEA6C5C02D152EA033C02D14FF000003B
S21400AF8070474FF0010070474FEA410212F5001279
S21400AF9015D211D56FF47873B3EB625212D94FEA1B
S21400AFA0C12343F0004343EA505311F0004F23FA05
S21400AFB002F018BF404270474FF00000704750EA5A
S21400AFC0013005D111F0004008BF6FF00040704717
S21400AFD04FF00000704700BF53B94AB9002908BFB8
S21400AFE000281CBF4FF0FF314FF0FF3000F078B95B
S21400AFF0ADF1080C6DE904CE00F006F8DDF804E0CB
S21400B000DDE9022304B070472DE9F047089D0E469F
S21400B01004468E46002B4CD18A42944667D9B2FA33
S21400B02082F252B101FA02F3C2F1200120FA01F1D4
S21400B0300CFA02FC41EA030E94404FEA1C48210C2D
S21400B040BEFBF8F61FFA8CF708FB16E341EA03434B
S21400B05006FB07F199420AD91CEB030306F1FF3001
S21400B06080F01E81994240F21B81023E63445B1AC7
S21400B070A4B2B3FBF8F008FB103344EA034400FB29
S21400B08007F7A7420AD91CEB040400F1FF3380F04F
S21400B0900981A74240F2068164440238E41B40EA74
S21400B0A0064000211DB1D4400023C5E90043BDE899
S21400B0B0F0878B4208D9002D00F0EF800021C5E90B
S21400B0C000060846BDE8F087B3FA83F1002949D1A7
S21400B0D0B34202D3824200F2FF80841A66EB030377
S21400B0E001209E46002DE2D0C5E9004EDFE702B9FA
S21400B0F0FFDEB2FA82F2002A40F08E80A1EB0C0648
S21400B1004FEA1C471FFA8CF30121B6FBF7FE07FB3C
S21400B1101E60260C46EA004603FB0EF0B04208D935
S21400B1201CEB06060EF1FF3802D2B04200F2D080C9
S21400B130C646361AA4B2B6FBF7F007FB106644EA1A
S21400B140064400FB03F3A34208D91CEB040400F1F9
S21400B150FF3602D2A34200F2B8803046E41A40EA34
S21400B1600E409FE7C1F1200722FA07F48B402343E5
S21400B17006FA01FC26FA07F420FA07F646EA0C0659
S21400B1804FEA134900FA01F8B4FBF9FE300C1FFA37
S21400B19083FC09FB1E4440EA04440EFB0CF0A0426C
S21400B1A002FA01F20AD91C190EF1FF3A80F08B80E0
S21400B1B0A04240F28880AEF1020E1C44241AB6B2B9
S21400B1C0B4FBF9F009FB104446EA044400FB0CFC0F
S21400B1D0A44507D91C1900F1FF3670D2A4456ED9D4
S21400B1E002381C4440EA0E40A0FB02E6A4EB0C0426
S21400B1F0B442F446B14659D356D0002D6ED0B8EBC3
S21400B2000C0364EB0904CB4004FA07F71F43CC4059
S21400B210C5E9007400214AE7C2F1200024FA00F1D3
S21400B2200CFA02FC06FA02F326FA00F04FEA1C4774
S21400B23041EA0306B0FBF7F11FFA8CF307FB110E89
S21400B240300C40EA0E4001FB03FE864504FA02F489
S21400B25008D91CEB000001F1FF3832D2864530D900
S21400B26002396044A0EB0E00B6B2B0FBF7FE07FB57
S21400B2701E0046EA00460EFB03F0B04209D91CEB5E
S21400B28006060EF1FF3818D2B04216D9AEF1020EFD
S21400B2906644361A4EEA014137E72946284606E74D
S21400B2A00646E4E61846F9E6F045A6D2BEEB020CE2
S21400B2B066EB0303013899469FE7C646E9E7304642
S21400B2C090E74146CEE7D64678E76444023845E73D
S21400B2D0AEF1020E66442CE7084603E72946E6E68A
S21400B2E0704700BF80B48FB000AF394B3B63394B1B
S21400B2F03B62394B7B61394BFB62394BFB61394B07
S21400B3003B61394BBB62394BFB60394B7B62394B37
S21400B310BB61394BBB6009E03B6A1A783B6B1A701D
S21400B3203B6B01333B633B6A01333B627A693B6AA2
S21400B3309A42F1D109E0FB691A78FB6A1A70FB6A37
S21400B3400133FB62FB690133FB613A69FB699A4290
S21400B350F1D105E0BB6A00221A70BB6A0133BB62FA
S21400B360FA68BB6A9A42F5D109E0BB691A787B6A2B
S21400B3701A70BB690133BB617B6A01337B62BA68B2
S21400B380BB699A42F1D10023FB711C4A1C4B9A42BE
S21400B39016D000237B630AE0194A7B6B52F8232001
S21400B3A016497B6B41F823207B6B01337B63154B7F
S21400B3B09B087A6B9A42EFD3134B104A1A6002E04E
S21400B3C0114B0F4A1A6000BF3C37BD4680BC704721
S21400B3D00084FF1F08020100C80C0100C08EFF1F7A
S21400B3E0C80C0100C80C0100000000200C01002061
S21400B3F000000020C80C0100C80C01000080FF1FE0
S21400B40000A000000004000008ED00E080B400AFDB
S21400B410084B094A5A60074B5B68064B42F22012FB
S21400B4201A60044B4FF6FF729A6000BFBD4680BCA0
S21400B430704700BF0020054020C528D980B400AF63
S21400B440094B00221A60084B1B680133064A13603A
S21400B450054B1A68054B1B689A42F4DB00DF024B6B
S21400B46000221A60EFE700BF1C0000201885FF1FAF
S21400B470684620F007018D4689B500AF0A4B1A686A
S21400B4800A4B1B681344084A1360084B1B68064A9D
S21400B49012681946064800F049F800BFBD46BDE8E8
S21400B4A089408546704700BF200000201C00002011
S21400B4B040FE000008B50021044601F0CFF8044B1A
S21400B4C01868C36B03B19847204604F089FC00BF98
S21400B4D06CFE000070B50D4D0D4C641BA4100026CC
S21400B4E0A64209D10B4D0C4C04F078FE641BA41048
S21400B4F00026A64205D170BD55F8043B9847013694
S21400B500EEE755F8043B98470136F2E7FC010100E8
S21400B510FC010100FC010100040201000244034694
S21400B520934200D1704703F8011BF9E70FB407B543
S21400B530064904AB086853F8042B8168019300F0B1
S21400B54007F803B05DF804EB04B070471C85FF1FD6
S21400B5502DE9F04FBDB00E460A921C46984682462C
S21400B56002F038F9036811931846FFF799F80B9024
S21400B570BAF1000F05D0DAF8383013B9504601F0AA
S21400B580C3FFB6F90C309F0406D443F40053B381CE
S21400B590336E23F400533366B3891D0713D533691E
S21400B5A08BB1B38903F01A030A2B19D1B6F90E3002
S21400B5B0002B15DB0A9A2346314650463DB0BDE8BF
S21400B5C0F04F00F0B3BF3146504600F0E5FF0028CC
S21400B5D0E7D04FF0FF330F930F983DB0BDE8F08FE4
S21400B5E00023CDE92033099300220023CDE90C2364
S21400B5F00023CDE912332CAC1F940F930A9B1D46F3
S21400B60013F8012B0AB1252AF9D10A9BEF1A0DD09F
S21400B610C4E90037219B3B442193209B0133072B31
S21400B620209375DC08340F9B3B440F932B78002B3C
S21400B63000F0448700236A1C8DF85F3019464FF0EF
S21400B640FF350E939B460A2712F8010B07900A92C5
S21400B650079A203A582A00F25884DFE812F0A4002D
S21400B66056045604A90056045604560456045604B6
S21400B6705604AC0063005604B300B6005604CE0071
S21400B680D100D100D100D100D100D100D100D1002D
S21400B690D10056045604560456045604560456045E
S21400B6A0560456045604030121015604210156048B
S21400B6B0560456045604E20056045604770356040D
S21400B6C05604560456045604D50356045604F50389
S21400B6D05604560456045604560456045604560495
S21400B6E056045604F5008900210121012101E500D8
S21400B6F0890056045604E800560459037903A90342
S21400B700EF005604BB035604D703560456046700DE
S21400B7101FAA3146504602F0B2FE002840F0B58619
S21400B7202CAC80E701232B210A9A8DE70BB18DF80C
S21400B7305F10924B13931BF0200700F08A8308F1EA
S21400B740070828F007031A465F6852F8088B089225
S21400B7501BF0010F0AD058EA070307D030238DF8F4
S21400B7606030079B8DF861304BF0020B0223FCE241
S21400B7700BB18DF85F101BF0200F79D008F1070889
S21400B78028F007031A465F6852F8088B0892002FC5
S21400B79007DAD8F100084FF02D0367EB47078DF85E
S21400B7A05F300123E4E20029BED101232021BBE75C
S21400B7B04BF0010BB8E758F8042B0E92002AB3DAC8
S21400B7C052420E924BF0040BAEE70A9A12F8010BA7
S21400B7D007902A280FD158F8045B0A9245EAE575C7
S21400B7E0A2E707FB050512F8010B0790079830380B
S21400B7F00928F6D92BE70025F8E74BF0800B93E7EE
S21400B80000200A9A0E900798DDF838C0303807FBFB
S21400B8100C000E9012F8010B079030380928F2D968
S21400B82015E74BF0080B7FE74BF0400B7CE70A9AD6
S21400B83012786C2A05D10A9A01320A924BF0200B34
S21400B84072E74BF0100B6FE74246002752F8043BB6
S21400B85008928DF888308DF85F7022AB0125B946C6
S21400B860069312E10BB18DF85F104BF0100B82E7D8
S21400B87008F104031BF0100F089305D0D8F8000059
S21400B88080464FEAE87782E71BF0400FD8F8007052
S21400B89004D00FFA87F847F3C03778E7B846F0E7E2
S21400B8A00BB18DF85F1008F1070828F0070319465A
S21400B8B0F1E80223CDE90C23DDE90C8323F00047F1
S21400B8C008912F4B4FF0FF3240463946FFF746FBB4
S21400B8D0F0B92B4B4FF0FF3240463946FFF720FBBE
S21400B8E0B0B9DDE90C0100220023FFF70FFB10B111
S21400B8F02D238DF85F30234B2348079A472AC8BF6D
S21400B900034606932BF0800B03250027B946BCE0C0
S21400B910DDE90C2310461946FFF720FB40B10D9BCE
S21400B9201A48002BBCBF2D238DF85F30184BE4E778
S21400B930079B681C23F020081ED0B8F1470F02D1E1
S21400B940002D08BF01254BF4807315930D9BB3F1B2
S21400B95000090C9B1093BBBF4B4603F10049002324
S21400B9602D23B8F1460F149314D0B8F1450F40F0CC
S21400B97064816F1C02230FE00625E4E791FE0000B9
S21400B980FFFFEF7F70FE000074FE00007CFE0000EC
S21400B99078FE00002F4603231DAA04921AAA0392DB
S21400B9A019AACDE901720093109A4B46504600F052
S21400B9B02FFFB8F1470F069040F041811BF0010FB2
S21400B9C040F03D811D9B069ADDF864909B1AB8F105
S21400B9D0470F099340F05E8119F1030F02DB4D45D6
S21400B9E080F27981079B023B079309F1FF33002B16
S21400B9F0079A1993B8BFC9F101038DF86C20B4BF3C
S21400BA002D222B22092B8DF86D2040F358810DF145
S21400BA107B000A27024693FBF7F507FB153130310A
S21400BA2002F8011C1946632900F1FF302B46F1DCB1
S21400BA303033911E00F8013C0DF16E050B460DF1FA
S21400BA407B008342C0F036810DF17D039B1A814254
S21400BA5088BF00230DF16E0213441BAA9B1A129393
S21400BA60099B129A012B03EB020502DC1BF001096D
S21400BA7003D00B9B4FF000091D44149B13B12D23DC
S21400BA808DF85F30DDF854B00027AF423B46B8BFB4
S21400BA902B4610939DF85F3013B1109B0133109323
S21400BAA01BF0020314931EBF109B023310931BF06F
S21400BAB08403159323D10E9B109AA3EB0208B8F1CA
S21400BAC0000F1CDDDDE920239E482060B8F1100F32
S21400BAD002F1010204F1080100F328824344072A18
S21400BAE0CDE92023C4F8048040F334821FAA3146EF
S21400BAF0504602F0C4FC002840F0C7842CAC9DF8E9
S21400BB005F3073B10DF15F03236001236360219BF7
S21400BB1001332193209B0133072B209300F31C82D3
S21400BB200834149B6BB118AB236002236360219B1F
S21400BB3002332193209B0133072B209300F31682B8
S21400BB400834159B802B23D10E9B109AA3EB02087A
S21400BB50B8F1000F1CDDDDE920237B482060B8F13A
S21400BB60100F02F1010204F1080100F309824344B8
S21400BB70072ACDE92023C4F8048040F315821FAAC3
S21400BB803146504602F07BFC002840F07E842CAC08
S21400BB907F1B002F1CDD4FF01008DDE920316A48BE
S21400BBA02060102F03F1010304F1080200F3FE8168
S21400BBB06760072B0F44CDE9203740F30A821FAA9F
S21400BBC03146504602F05BFC002840F05E842CAC08
S21400BBD01BF4807F219F40F0FE81069BC4E9003560
S21400BBE03D442195209B0133072B209340F32B8463
S21400BBF01FAA3146504602F042FC002840F0458419
S21400BC002CAC1BF0040F40F02184DDE90E231099C4
S21400BC108A42ACBF9B185B180F93219B3BB11FAAAF
S21400BC203146504602F02BFC002840F02E840023BC
S21400BC30DDF8208020932CACE0E42F469AE6069BA5
S21400BC40B8F1460F3B44099311D1069B1B78302B65
S21400BC5009D11098002200234946FFF74DF910B984
S21400BC60C7F101071997099A199B1A440992109867
S21400BC70002200234946FFF73FF908B1099B1D93B0
S21400BC8030221D9B099999427FF69CAE591C1D9146
S21400BC901A70F6E7079B662B7FF4A7AE0BF001033E
S21400BCA0B9F1000F43EA050311DD5BB30B9B4B4470
S21400BCB01D44E2E613F8017B05F8017BC1E630225D
S21400BCC013448DF86F308DF86E201CABC5E6DBB1E3
S21400BCD00B9B0133ECE7099B4B4508DC1BF0010F7F
S21400BCE014D00B9B09EB030567230793C5E6099B56
S21400BCF00B9AB9F1000F03EB0205F5DCC9F101035D
S21400BD001D44F1E74D46B8E60125B6E64D46EBE79D
S21400BD100BB18DF85F101BF0200F58F8043B05D0D0
S21400BD200F9A0F99D217C3E9001267E41BF0100FA1
S21400BD3002D00F9A1A6061E41BF0400FF9D00F9AF8
S21400BD401A805BE4A4FE0000B4FE00004BF0100B6B
S21400BD501BF020071CD008F1070828F007031A4636
S21400BD605F6852F8088B0892002300228DF85F2047
S21400BD706A1C00F0AC8358EA07022BF0800940F0FA
S21400BD80AB83002D00F0B780012B40F0A88375E050
S21400BD9008F104031BF01001089302D0D8F80080C5
S21400BDA0E2E71BF04007F9D0B8F800800F46DBE763
S21400BDB04346782253F8048B089330238DF860307E
S21400BDC0AD4B139300274BF0020B8DF86120022336
S21400BDD00792CAE74346002753F8042B0692691CCD
S21400BDE008938DF85F700AD006982A463946FEF703
S21400BDF007FC002800F09880069BC51A86E5069882
S21400BE00FEF74EFC054681E54BF0100B1BF02007B5
S21400BE100AD008F1070828F007031A465F6852F8A8
S21400BE20088B08920123A0E708F104031BF0100119
S21400BE30089302D0D8F80080F4E71BF04007F9D04A
S21400BE40B8F800800F46EDE70BB18DF85F108B4B0E
S21400BE5070E408F104031BF01001089302D0D8F830
S21400BE60008075E41BF04007F9D0B8F800800F4654
S21400BE706EE4B8F10A0F77F1000306D208F1300835
S21400BE808DF8AF800DF1AF034AE32CAB0693404626
S21400BE9039460A220023FFF79FF8069BCDF840801C
S21400BEA0303203F8012D40460693394600230A2215
S21400BEB0FFF792F8109BBB460A2B7BF100038046E7
S21400BEC00F46E4D2069B2F462CADCB46ED1A4FF01C
S21400BED00009DAE5139A08F00F034FEA1818D35C46
S21400BEE0069A48EA077802F8013D3F0958EA070330
S21400BEF00692EFD1E6E733B91BF0010F03D03023EB
S21400BF008DF8AF30BEE72CAB0AE30BB18DF85F10AF
S21400BF10079B002B00F0D28200278DF888308DF822
S21400BF205F70CDF8208098E40746EFE410200344C5
S21400BF30072ACDE92023606008DD1FAA3146504657
S21400BF4002F09DFA002840F0A0822CA9A8F1100863
S21400BF500C46B7E50C46D2E51FAA3146504602F01D
S21400BF608EFA002840F091822CACDAE51FAA314602
S21400BF70504602F084FA002840F087822CACE0E5B8
S21400BF8010200344072ACDE92023606008DD1FAA9D
S21400BF903146504602F073FA002840F076822CA90B
S21400BFA0A8F110080C46D6E50C46F1E51031072B33
S21400BFB0CDE92031C4F8048008DD1FAA314650467A
S21400BFC002F05DFA002840F060822CAA103F14466A
S21400BFD0E3E51446FCE5079B652B40F3A381DDE90A
S21400BFE00C0100220023FEF787FF002868D0244BB0
S21400BFF0236001231F446360209B21970133072B96
S21400C00020932FDC0834199B099A934203DB1BF01C
S21400C010010F3FF4F6AD119B23600B9B0B9A6360F8
S21400C020219B13442193209B0133072B20932BDC69
S21400C0300834099B5D1E002D7FF7E3AD1027DDE970
S21400C040203210482060102D03F1010304F108018E
S21400C05024DC656015442195072B20933FF7C8AD77
S21400C0600C46CEE51FAA3146504602F008FA0028D4
S21400C07040F00B822CACC6E791FE000080FE00006C
S21400C080A2FE0000B4FE00001FAA3146504602F091
S21400C090F6F9002840F0F9812CACCAE71032072BDD
S21400C0A0CDE92032676008DD1FAA3146504602F00F
S21400C0B0E6F9002840F0E9812CA9103D0C46BEE7C1
S21400C0C0199B002B6EDC954B236001231F44636095
S21400C0D0209B21970133072B20933DDC08340999D8
S21400C0E0199A219B0A430BF001010A433FF489ADDC
S21400C0F0119A22600B9A626013442193209B0133AD
S21400C100072B209332DC0834199D002D1BDA6D4274
S21400C11023461027DDE9202181481860102D02F102
S21400C120010204F108042BDC5D60072A0D44CDE90A
S21400C130202508DD1FAA3146504602F0A0F9002847
S21400C14040F0A3812CAC069B2360099B099A636090
S21400C150219B1344219345E51FAA3146504602F021
S21400C1608EF9002840F091812CACB8E71FAA314622
S21400C170504602F084F9002840F087812CACC3E7D3
S21400C1801031072ACDE920215F6008DD1FAA31465D
S21400C190504602F074F9002840F077812CAC103D30
S21400C1A02346B7E7099D4D45A8BF4D46002D0ADD3D
S21400C1B0069BC4E90035209B01332F44072B2197AB
S21400C1C0209367DC0834002DACBFA9EB05074F466B
S21400C1D0002F19DD1025DDE9203251482060102F90
S21400C1E003F1010304F108015EDC3A44072BCDE9B4
S21400C1F0203267606ADD1FAA3146504602F03FF9DA
S21400C200002840F042812CAC199B099A934202DB2D
S21400C2101BF0010F0DD0119B23600B9B0B9A6360E4
S21400C220219B13442193209B0133072B20934FDC43
S21400C2300834099B099AA3EB0905199BD31A9D425A
S21400C240A8BF1D46002D0CDD219B06982B4421938C
S21400C250209B01334844072BC4E90005209341DCAA
S21400C2600834199F099B002DA3EB0707A8BF7F1B67
S21400C270002F7FF7C6AC1025DDE920322848206065
S21400C280102F03F1010304F1080135DC6760174441
S21400C2902197E1E61FAA3146504602F0F0F8002842
S21400C2A040F0F3802CAC8EE71032072BCDE920321D
S21400C2B0656008DD1FAA3146504602F0E0F8002807
S21400C2C040F0E3802CA9103F0C4684E70C469BE721
S21400C2D01FAA3146504602F0D2F8002840F0D5801A
S21400C2E02CACA6E71FAA3146504602F0C8F8002834
S21400C2F040F0CB802CACB4E71032072BCDE92032CF
S21400C300656008DD1FAA3146504602F0B8F80028DE
S21400C31040F0BB802CA9103F0C46ADE7A2FE000003
S21400C320B4FE0000099A209B012A069A226007F1B3
S21400C330010703F101034FF00102CDE9203704F1B4
S21400C3400805626002DC1BF0010F77D0072B08DDC2
S21400C3501FAA3146504602F092F8002840F0958019
S21400C3602CAD119B2B600B9B0B9A6B60219B13448F
S21400C3702193209B0133072B209331DC0835099B42
S21400C380DDE90C015C1E00220023FEF7B5FD002847
S21400C3902FD1209A219B069809990132013B013042
S21400C3A00B44072AC5E90004CDE9202349DD1FAA6E
S21400C3B03146504602F063F8002866D12CAD1BAB20
S21400C3C02B60129B129A6B60219B13442193209B37
S21400C3D00133072B20933FF70BAC05F1080410E45C
S21400C3E01FAA3146504602F04AF800284DD12CAD1F
S21400C3F0C5E7002CE3DD1027DDE920324948286038
S21400C400102C03F1010305F1080107DC6C60072B13
S21400C4101444CDE92034CADC0D46D0E71032072B91
S21400C420CDE920326F6006DD1FAA3146504602F085
S21400C43026F850BB2CA9103C0D46DDE7072BBEDDC9
S21400C440B5E70835BBE70834FFF7DBBB0E9B109A51
S21400C4509D1A002D7FF7D9AB334F4FF01008DDE95A
S21400C4602032102D03F10103276014DC6560072BD2
S21400C4701544CDE920357FF7C8AB1FAA3146504694
S21400C48001F0FDFF00283FF4C0ABB3895B067FF5E3
S21400C490A3A8FFF79EB81032072BCDE92032C4F8C8
S21400C4A0048002DC0834103DD9E71FAA3146504606
S21400C4B001F0E5FF0028E8D12CACF4E7219B002B27
S21400C4C0E3D01FAA3146504601F0D9FFDDE758EA0F
S21400C4D00702D9463FF458AC012B3FF4CAAC022BF6
S21400C4E02CAB06933FF4F6AC069A08F00703114609
S21400C4F0303301F8013D4FEAD80848EA4778FF088C
S21400C500069158EA0701EFD119F0010F3FF4DAACB3
S21400C510302B3FF4D7AC0699302301F8013C931E2C
S21400C5200693CFE4B4FE0000A4FE000070B50C46EF
S21400C5308989ADF58D6D21F00201ADF81010216EE0
S21400C5401991E189ADF81210E1690891616A0A91C2
S21400C5501AA9019105914FF480610391069100217B
S21400C560079101A90646FEF7F3FF051E07DB01A9A2
S21400C570304600F08DFF002818BF4FF0FF35BDF89D
S21400C58010305B0648BFA389284644BF43F04003EB
S21400C590A3810DF58D6D70BD38B52A4B054618681C
S21400C5A00C4618B1836B0BB900F0AEFFA389B4F943
S21400C5B00C20180722D4D90607D409232B6042F092
S21400C5C04003A3814FF0FF3034E0580712D5216BAB
S21400C5D041B104F14003994202D0284601F01AF80E
S21400C5E000232363A38923F02403A381002363602D
S21400C5F023692360A38943F00803A38123694BB909
S21400C600A38903F42073B3F5007F03D021462846A0
S21400C61001F016F9A089B4F90C2010F001030AD035
S21400C6200023A36063695B42A361236943B910F0EA
S21400C6308000C4D138BD810758BF6369A360F4E7A2
S21400C6400020F7E71C85FF1F024B13B1024802F0DB
S21400C650EDBB7047000000004DD500002DE9F74FF8
S21400C660264B1B68019307460E464FF0000A019BB7
S21400C670D3F8485155B16C6804F1FF38013405EB26
S21400C68084044FF00109B8F1000F02DA03B0BDE8E8
S21400C690F08F3EB1D4F80021B24203D008F1FF3843
S21400C6A0043CF0E769682268013941450CBFC5F8CB
S21400C6B00480C4F800A0002AF0D0D5F88811D5F878
S21400C6C004B009FA08FC1CEA010F09D19047696812
S21400C6D0019B5945D3F84821C9D19542DED0C6E71B
S21400C6E0D5F88C01D4F880101CEA000F02D1384629
S21400C6F09047ECE708469047E9E700BF6CFE00006D
S21400C7002DE9F74F03690C69A34207467DDB013C20
S21400C71001F1140800F1140505EB8403019358F8A1
S21400C720243055F8242001339A424FEA840B08EB54
S21400C7308409B2FBF3F62ED34FF0000E4046AC460B
S21400C740F24650F8042B93B206FB03E34FEA134E6F
S21400C750120C9BB206FB02E2AAEB0303DCF800A075
S21400C7604FEA124E92B213FA8AF3C2EB1A4202EB67
S21400C77023429BB243EA024381454CF8043B4FEA0E
S21400C780224ADED255F80B302BB9019B043B9D4262
S21400C7901A462ED33C61384601F01EFD002824DBE5
S21400C7A0013628464FF0000C58F8042BD0F800E06D
S21400C7B093B2ACEB0303120C13FA8EF3C2EB1E42D9
S21400C7C002EB23429BB243EA0243C14540F8043BD6
S21400C7D04FEA224CE8D255F8242005EB840322B910
S21400C7E0043B9D421A460AD33C61304603B0BDE87E
S21400C7F0F08F1268043B002ACCD1013CC7E71268D0
S21400C800043B002AF0D1013CEBE70020EEE70000F5
S21400C8102DE9F04F016C97B08146239E14461D46C5
S21400C82092469B4649B1426C4A60012393408B6016
S21400C83001F0C7FA0023C9F840302B1EAABF002318
S21400C84023F0004B3360A04BBCBF0122326033EABA
S21400C8500B0319D1229A42F20F731360CBF3130322
S21400C860234300F07585249B0BB9984B20E0974B2B
S21400C87004930333249A1360049817B0BDE8F08F2E
S21400C880934B04930833F5E700220023504659469D
S21400C890CDE90CABFEF730FB074658B1229A0123D0
S21400C8A01360249B002B00F050858A481860431EB6
S21400C8B00493E1E714AB019315AB00934846DDE91A
S21400C8C00C2301F02DFDCBF30A560390002E7BD0EF
S21400C8D00D9B1397C3F31303DDE90C0143F07F515F
S21400C8E041F44011A6F2FF367B4B0022FDF7E4FE32
S21400C8F06FA3D3E90023FEF797F86FA3D3E90023CD
S21400C900FDF7DCFE044630460D46FEF723F86CA322
S21400C910D3E90023FEF788F802460B462046294650
S21400C920FDF7CCFE04460D46FEF72EFB00228046A1
S21400C930002320462946FEF7E9FA48B14046FEF7AE
S21400C94009F822462B46FEF7D7FA08B908F1FF3851
S21400C950B8F1160F55D8614B03EBC803D3E9002393
S21400C960DDE90C01FEF7D2FA00284CD008F1FF38BA
S21400C97000230F93149B9E1B731E099345BFC6F19D
S21400C98001030693002300234CBF09930693B8F1D6
S21400C990000F3ADB099BCDF8388043440993002307
S21400C9A00A93209B092B6AD8052BC4BF043B20930F
S21400C9B0209BA3F10203CCBF00240124032B69D8DB
S21400C9C0DFE803F02D3A385BDDE914631E4406F217
S21400C9D03243202BC3BFC3F1400306F212400BFACA
S21400C9E003F3C3F12003C6BF24FA00F0184304FA89
S21400C9F003F0FDF79FFF0123A1F1F871013E1393A9
S21400CA0072E70123B5E70F90B4E7069BA3EB080394
S21400CA100693C8F100030A9300230E93C1E7002390
S21400CA200B93219B002B38DC0123089305931A46B1
S21400CA3021920BE00123F3E700230B93219B434451
S21400CA4008930133012B0593B8BF01230022C9F8D0
S21400CA504420042202F114009842D9F8441020D948
S21400CA60484601F089F9049000283DD11C4B024647
S21400CA704FF4D5711B4802F0BBF90123DDE7012412
S21400CA80002320930B944FF0FF3308930593002266
S21400CA901223CDE701230B93F5E7219B089305931B
S21400CAA0D4E70131C9F844105200D3E7AFF3008051
S21400CAB061436F63A787D23FB3C8608B288AC63F9F
S21400CAC0FB799F501344D33F0000F07FC4FE000064
S21400CAD0C8FE0000A3FE00000000F83F90FF000024
S21400CAE0D1FE0000E2FE0000049BC9F84030059B22
S21400CAF00E2B00F2A180002C00F09E80B8F1000FF3
S21400CB0034DD964A08F00F0302EBC303D3E9003482
S21400CB1018F4807FCDE910344FEA281516D0904BD4
S21400CB20DDE90C01D3E90823FEF7A8F805F00F05A8
S21400CB3082468B4603268A4C55B9DDE910235046BB
S21400CB405946FEF79BF882468B4628E00226F2E717
S21400CB50E90708D5DDE91001D4E90023FDF764FFF5
S21400CB60CDE9100101366D100834E5E700F09E802F
S21400CB70C8F10004794B7A4D04F00F0203EBC203B0
S21400CB80D3E90023DDE90C01FDF74EFF24118246B0
S21400CB908B4600230226002C7DD1002BD3D10F9B81
S21400CBA0002B00F085806F4B002250465946CDE999
S21400CBB010ABFEF7ABF900287AD0059B002B77D098
S21400CBC0089B002B36DD50465946674B0022FDF782
S21400CBD02BFF089C08F1FF3582468B46013630460F
S21400CBE0FDF7B8FE52465B46FDF71EFF5F4B002280
S21400CBF0FDF764FDA1F15076CDE910011196002CE9
S21400CC0059D15B4B002250465946FDF755FD109A08
S21400CC10334682468B46FEF797F9002840F08B8213
S21400CC20109A06F1004350465946FEF76FF9002861
S21400CC3040F07F82DDE90CAB159B002BC0F24D81E6
S21400CC40B8F10E0F00F34981444B03EBC803D3E958
S21400CC500034CDE90634219B002B80F2D680059B5C
S21400CC60002B00F3D28040F06382414B0022DDE9C6
S21400CC700601FDF7D9FE52465B46FEF75BF9059CBA
S21400CC802546002840F03C82049E312306F8013BEE
S21400CC9008F1010838E2E20705D5D5E90023FDF7DB
S21400CCA0C3FE013601236410083574E7022676E7D2
S21400CCB0059C454693E70499284B214412910B990D
S21400CCC003EBC403DDE9106753E90223002953D0C0
S21400CCD028490020FDF7D2FF32463B46FDF7ECFC24
S21400CCE0CDE91001049E59465046FEF74DF904461C
S21400CCF0FDF730FE02460B4650465946FDF7DCFC73
S21400CD003034DDE9102306F8014B82468B46FEF7E9
S21400CD10FDF8002871D152465B4612490020FDF707
S21400CD20CBFCDDE91023FEF7F1F8002840F0B780D1
S21400CD30129B9E423FF47EAFDDE910010A4B0022B3
S21400CD40FDF772FE084BCDE9100100225046594609
S21400CD50FDF76AFE82468B46C5E700BF90FF0000DF
S21400CD6068FF00000000F03F0000244000001C4068
S21400CD70000014400000E03F30463946FDF754FE00
S21400CD80CDE91001129F049E59465046FEF7FCF866
S21400CD900446FDF7DFFD303402460B465046594642
S21400CDA0FDF78AFC06F8014B129B9E4282468B4694
S21400CDB04FF0000223D1B04BDDE91001FDF77EFCF9
S21400CDC002460B4650465946FEF7BEF8002866D186
S21400CDD0DDE91023A8490020FDF76EFC02460B464D
S21400CDE050465946FEF792F800283FF423AF3E46D9
S21400CDF0013F16F8013C302BF9D0A8463EE09F4B89
S21400CE00FDF712FE82468B46BEE75D46049EDFF8BF
S21400CE106CB254464FF0000ADDE906232046294648
S21400CE20FDF72CFFFEF7B0F80746FDF793FDDDE9AA
S21400CE300623FDF7F9FD02460B462046294607F174
S21400CE403004FDF739FC06F8014B049C059D341BA5
S21400CE50A54202460B4633D1FDF730FCDDE906233A
S21400CE6004460D46FEF770F8C0B9DDE906232046F5
S21400CE702946FEF741F808B1FB070FD44846039948
S21400CE8000F09FFF00233370229B08F1010018601A
S21400CE90249B002B3FF4F0AC1E60EDE44546334681
S21400CEA01E4613F8012D392A06D1049A9A42F7D164
S21400CEB00499302201350A701A7801321A709CE7FC
S21400CEC052465B46FDF7B0FD0022002304460D46A1
S21400CED0FEF712F800289FD0D0E70B9A002A00F041
S21400CEE0CF80209A012A00F3AD80139A002A00F022
S21400CEF0A58003F233430A9C069E069A1A440692BD
S21400CF00099A01211A444846099200F0F7FF05469F
S21400CF10002E0CDD099B002B09DDB342069AA8BF44
S21400CF203346D21A0692099AF61AD31A09930A9B1E
S21400CF30F3B10B9B002B00F0A780002C10DD2946D8
S21400CF402246484601F098F8039A014605464846A8
S21400CF5000F0EAFF03990746484600F032FF0397C1
S21400CF600A9B1A1B04D00399484601F085F80390E3
S21400CF700121484600F0C2FF0E9B002B044640F3FA
S21400CF8085801A460146484601F076F8209B012B1C
S21400CF9004467EDD0027236904EB8303186900F04E
S21400CFA05FFFC0F12000099B184410F01F0000F03E
S21400CFB08E80C0F12003042B40F38780C0F11C0054
S21400CFC0069B03440693099B034406440993069B69
S21400CFD0002B05DD03991A46484601F08DF80390AC
S21400CFE0099B002B05DD21461A46484601F084F8C9
S21400CFF004460F9B002B6CD00398214601F0ECF8FA
S21400D000002866DA002303990A22484600F0E2FE6A
S21400D0100B9B039008F1FF38002B00F0A081002343
S21400D02029460A22484600F0D5FE089B002B0546F6
S21400D03000F38A80209B022B53DC85E0149BC3F10F
S21400D040360358E7059B5C1E0A9BA342BFBF0A9B9C
S21400D0500A94E21A0E9BB6BF9B181C1B0E93059BE8
S21400D060B8BF0024002BB7BFDDE90523DDE9053690
S21400D0709E1A002341E700BF0000E03F0000244066
S21400D0800A9C069E0B9D43E70A9A6CE7209B012BA1
S21400D09017DCBAF1000F14D1CBF313039BB92BF0B6
S21400D0A000473F0D3F0537B1069B01330693099BAA
S21400D0B00133099301270E9B002B7FF46CAF0120F0
S21400D0C071E70027F7E75746F5E780D018461C308B
S21400D0D076E7059B002B31DC209B022B2EDD059B83
S21400D0E00893089B63B921460522484600F072FE65
S21400D0F001460446039801F06FF800283FF7C4ADD8
S21400D100219B049E6FEA030800272146484600F04C
S21400D11058FE002D3FF4B2AE2FB1AF4203D03946D1
S21400D120484600F04EFE2946484600F04AFEA5E670
S21400D13000242546E4E7A8462546A5E50B9B002BDC
S21400D14000F0C480059B0893002E05DD2946324674
S21400D150484600F0D1FF0546002F58D0696848467B
S21400D16000F00AFE064620B9814B024640F2EA214C
S21400D17080E42A690232920005F10C010C3000F0BE
S21400D180EBFD01223146484600F0B6FF049B049AA8
S21400D19001330593089B13440A930AF001032F46B4
S21400D1A009930546059B0398214603F1FF3BFFF7CD
S21400D1B0A7FA3946069000F1300A039801F00CF8F9
S21400D1C02A4608902146484601F022F8C2680646DC
S21400D1D0FAB90146039800F0FFFF0246314648467A
S21400D1E00B9200F0EEFD209B0B9A059E43EA02018F
S21400D1F0099B0B430FD1BAF1390F28D0089B002B9F
S21400D20002DD069B03F1310A8BF800A07DE7284675
S21400D210BCE70122E2E7089B002B04DB20990B43C6
S21400D22009990B4320D1002AEEDD039901224846D6
S21400D23000F062FF2146039000F0CEFF002803DCDA
S21400D240E2D11AF0010FDFD0BAF1390FD9D1392364
S21400D2508BF8003033461E46013B16F8012C392A5F
S21400D2606BD001321A7050E7002A07DDBAF1390F89
S21400D270EDD00AF101038BF8003046E7059B0A9AC9
S21400D28003F801AC934242D0039900230A22484691
S21400D29000F0A0FDAF4203904FF000034FF00A02EB
S21400D2A03946484607D100F095FD07460546059BDA
S21400D2B00133059376E700F08DFD294607460023E7
S21400D2C00A22484600F086FD0546F0E7059B0893CF
S21400D2D0049E03982146FFF713FA00F1300A049BD8
S21400D2E006F801ABF21A089B934207DD0399002368
S21400D2F00A22484600F06EFD0390EAE7089B002BE2
S21400D300C8BF1E46049BD8BF01261E4400270399AB
S21400D3100122484600F0F0FE2146039000F05CFF34
S21400D320002897DC02D11AF0010F93D133461E462F
S21400D33013F8012D302AFAD0E7E6049A9A428AD1E9
S21400D340312308F101081370DFE60A4BFFF7B0BA85
S21400D350249B002B7FF494AA074BFFF7A9BA089BDF
S21400D360002BB5DC209B022B3FF7BBAEB0E700BF1F
S21400D370D1FE0000A2FE0000C8FE0000F8B58B89B2
S21400D380B1F90C20054618070C465ED44B6842F4EB
S21400D3900062002B8A8104DCCB6B002B01DC0020B2
S21400D3A0F8BDA66A002EFAD0002312F480522F6829
S21400D3B02B6036D0206DA3895A0705D56368C01A3E
S21400D3C0236B0BB1E36BC01A00230246A66AE16921
S21400D3D02846B047431CA38906D129681D2930D8A2
S21400D3E02A4ACA40D6072CD523F400631BB2002273
S21400D3F06260D9042269A381226004D5421C01D14F
S21400D4002B6803B92065216B2F600029C7D004F173
S21400D4104003994202D0284600F0FCF80020206322
S21400D420BEE7E16901232846B047411CC3D12B68FB
S21400D430002BC0D01D2B01D0162B01D12F60AEE7DC
S21400D440A38943F04003A381AAE70F69002FA6D063
S21400D4509B070E6808BF4B690F6018BF0023F61BBA
S21400D4608B60002E9BDDE169D4F824C033463A4633
S21400D4702846E047002806DCA38943F04003A38142
S21400D4804FF0FF308CE70744361AEAE701004020E9
S21400D49038B50D46044618B1836B0BB900F034F866
S21400D4A0B5F90C0028B129462046BDE83840FFF7FC
S21400D4B065BF38BD002310B50446C0E90033C0E997
S21400D4C00433836081810366C28183611946082222
S21400D4D05830FEF723F8054B2362054B6362054B75
S21400D4E0A362054BE461E36210BD00BFF9E30000F0
S21400D4F01BE4000053E4000077E40000014900F05C
S21400D50049B900BFB5EE0000826B10B50446D2B92B
S21400D5100D4BC3630323C0F8E43200F53B73C0F839
S21400D520E832C0F8E02204214068FFF7C3FFA06895
S21400D53001220921FFF7BEFFE06802221221FFF751
S21400D540B9FF0123A36310BDFDD4000038B5074D15
S21400D550074C641BA4101CB9BDE8384002F044BE5A
S21400D560013C55F824309847F5E700BF0402010057
S21400D57008020100F8B5244F0C46064600F0FAFBF8
S21400D580BB685D68C4F57E6425F003050F342C4443
S21400D59024F47F6424F00F04A4F58054B4F5805F6F
S21400D5A004DA304600F0E7FB0020F8BD00213046E4
S21400D5B000F012FFBB682B449842F2D1614230461D
S21400D5C000F00AFF013010D10021304600F004FFC1
S21400D5D0BA68831A0F2BE4DD0C490968401A0C4917
S21400D5E043F0010308605360DBE7BB68084A2D1B65
S21400D5F045F001055D60136830461B1B136000F0A4
S21400D600BAFB0120D1E700BFA48AFF1FAC8EFF1F24
S21400D61024000020F8B505460F46002900F0B1802A
S21400D62000F0A8FB57F8042C564822F00104A7F196
S21400D630080303EB040C8168DCF80460614526F0FF
S21400D640030602F001021BD134443AB957F8082CFD
S21400D6509B1A1444D3E90212CA60916044F0010296
S21400D6605A608360484B1B68A34204D8474B284641
S21400D6701968FFF77FFF2846BDE8F84000F07BBB3F
S21400D680CCF80460002A38D157F8081C5B1A0C4402
S21400D690996800F10807B94231D0DF68CF60B960F9
S21400D6A00CEB06014968C9070BD4DCF808103444B3
S21400D6B03ABB374EB14224D1C0E90433C3E9021164
S21400D6C0012244F0010159601C51002AD3D1B4F55F
S21400D6D0007F1BD26109E20801248C4041680132B8
S21400D6E00C43446000EBC20150F832400839C3E9ED
S21400D6F0024140F83230E360BDE70022D0E7012265
S21400D700CEE7DCF80C60CE60B160DAE7B4F5206FE7
S21400D7104FEA542214D2A2093832511C00EBC2063A
S21400D72050F831108E4225D10124921004FA02F2EC
S21400D730446822434260C3E90216B360CB609AE7AE
S21400D740142A01D85B32E8E7542A02D8220B6E323C
S21400D750E3E7B2F5AA7F02D8E20B7732DDE740F2C4
S21400D76054518A429ABFA20C7C327E22D5E7896841
S21400D7708E4204D04A6822F00302A242F7D8CE684E
S21400D780D9E7F8BDA48AFF1FB08EFF1F5400002003
S21400D790AC8AFF1F2DE9F8430646884600F5387424
S21400D7A00027D4E90195B9F1010905D52468002CB4
S21400D7B0F7D13846BDE8F883AB89012B07D9B5F910
S21400D7C00E30013303D029463046C0470743643540
S21400D7D0E9E7000000487047288AFF1F014B93F8CE
S21400D7E0280170473889FF1F70B50E46B1F90E1034
S21400D7F0002996B014461D460ADAB6F90C10002326
S21400D80011F080002B6016D14FF48063236015E082
S21400D8106A4601F0EBFB0028EFDB019A02F4704247
S21400D820A2F500535A425A414FF480632A604FF4DF
S21400D8300060236002E040222260184616B070BDE9
S21400D8408B8973B59D0706460C4607D504F143033E
S21400D850236023610123636102B070BD01AB6A4699
S21400D860FFF7C2FF00990546304600F029F848B990
S21400D870B4F90C309A05EFD423F0030343F0020307
S21400D880A381E3E70D4BF363A389206043F0800395
S21400D890A381009B6361019B20615BB1B4F90E100C
S21400D8A0304601F0FDFC28B1A38923F0030343F0C2
S21400D8B00103A381A0890543A581CDE7FDD400001F
S21400D8C001F10B03162B2DE9F74F054606D933F069
S21400D8D0070704D50C232B600024A5E11027B942C6
S21400D8E0F8D8284600F046FAB7F5FC7FB04E37D297
S21400D8F007F108023244A2F1080154688C424FEA4C
S21400D900D70302D1D468A24210D06368D4E90212C9
S21400D91023F00303CA60234491605A6842F0010270
S21400D9205A60284600F027FA08347DE1023334694D
S21400D930A0498C4277D0626822F0030CACEB07005B
S21400D9400F2848DDE21940F0010347F00107676041
S21400D950C6E90422C2E90211536044F80C00E0E76D
S21400D9607B0A2AD0042B12D8BB0938335A1C06EB84
S21400D970C202A2F1080C5468644506D0626822F020
S21400D9800302D01B0F281CDD013B0133CFE7142B0D
S21400D99001D85B33EAE7542B02D83B0B6E33E5E73E
S21400D9A0B3F5AA7F02D8FB0B7733DFE740F2545279
S21400D9B0934204D8BB0C7C33D8E73F23D6E77E23BC
S21400D9C0D4E70028E16804DBA368D9608B60A3185D
S21400D9D0A3E70C46D0E70028C6E9041107DBA444F9
S21400D9E0DCF8043043F00103CCF8043099E7BCF5CA
S21400D9F0007F706880F096804FEADC024FEA5C1E7B
S21400DA004FF0010C01320CFA0EFC4CEA000070607C
S21400DA1056F832C006EBC2000838C4E902C046F821
S21400DA203240CCF80C4001209A1000FA02F27068DE
S21400DA30904226D3104206D123F003035200104230
S21400DA4003F10403FAD006EBC308C1469E46D9F894
S21400DA500C404C4540F0BA800EF1010E1EF0030F4C
S21400DA6009F10809F3D1980740F0E480736823EAC7
S21400DA700203736070685200904202D3002A40F09E
S21400DA80E680D6F808A0DAF8043023F00309B94592
S21400DA9004D3A9EB07020F2A00F34181464A146813
S21400DAA0464A11683C4401311DBF04F580540F34CA
S21400DAB024F47F64103418BF24F00F040AEB090323
S21400DAC021462846009300F087FCB0F1FF3F8046D1
S21400DAD000F0F980009B394A834202D9B24540F0F3
S21400DAE0F280DFF8DCB0DBF8000043452044CBF8DA
S21400DAF0000040F0AE80C3F30B01002940F0A9807F
S21400DB00B3684C4444F001045C602E4ADBF80030F5
S21400DB1011688B4288BF13602B4A11688B4288BFFE
S21400DB201360D0E0BCF5206F4FEA5C2218D24FEAB3
S21400DB309C12383202F1010E06EBC20856F83EE09F
S21400DB40F0452BD192104FF0010C0CFA02F2104364
S21400DB507060C4E902E8C8F80840CEF80C4062E7F6
S21400DB60142A01D85B32E5E7542A03D84FEA1C3260
S21400DB706E32DFE7B2F5AA7F03D84FEADC3277329F
S21400DB80D8E740F2545E72459ABF4FEA9C427C3218
S21400DB907E22CFE7DEF808E0F04505D0DEF8042068
S21400DBA022F003026245F5D8DEF80C80D1E700BF0C
S21400DBB0A48AFF1FAC8AFF1F54000020AC8EFF1FF4
S21400DBC0240000204C000020500000206068D4F89C
S21400DBD00CC020F00300A0EB070ABAF10F0F12DD0D
S21400DBE0A368E21947F001076760C3F80CC0CCF8D9
S21400DBF008304AF00103C6E90422C2E90211536064
S21400DC0044F800A08DE6BAF1000F11DB204443680B
S21400DC1043F00103436054F8083F2846C3F80CC09D
S21400DC20CCF8083000F0A7F8204603B0BDE8F08F27
S21400DC3064460EE758F80809404503F1FF333FF401
S21400DC4012AF17E7043352001042FBD0FBE67346D0
S21400DC50FAE7116801311BBFA8EB03031B18C2F8D3
S21400DC600080CBF8003018F007031ABFC3F1080194
S21400DC70884419464444091BC1F30B012846019306
S21400DC80009100F0A9FB431CDDE9001304D143B367
S21400DC90A3F1080020440021DBF80030C6F8088015
S21400DCA0A0EB080008440B4440F00100B245CBF856
S21400DCB00030C8F804003FF428AFB9F10F0F13D8AE
S21400DCC00123C8F80430B3685B6823F00303BB4243
S21400DCD0A3EB070201D30F2A21DC284600F04BF8FD
S21400DCE0FAE520461946D7E7DAF80430A9F10C0918
S21400DCF029F0070903F0010343EA0903CAF80430D0
S21400DD0005220AEB0903B9F10F0FC3E901227FF6DA
S21400DD10FCAE0AF108012846FFF77CFCF5E6B4687D
S21400DD2047F00103274442F001026360B7607A605F
S21400DD30F7E500BF82B001B901A942B14BB1137833
S21400DD400B601278101E18BF012002B070471046F4
S21400DD50FBE76FF00100F8E70A44914200F1FF3359
S21400DD6000D1704710B511F8014B03F8014F9142EE
S21400DD70F9D110BD70477047C36C70B505460C46A8
S21400DD807BB1EB6C53F82400A0B9012101FA04F62C
S21400DD90721D9200284601F04FF848B1C0E90146CE
S21400DDA00BE02122042101F047F8E8640028E8D1BE
S21400DDB0002070BD026843F824200023C0E9033326
S21400DDC0F7E731B1C36C4A6853F82200086043F89D
S21400DDD0221070472DE9F0410D6907460C461E4695
S21400DDE001F1140C0020DCF8003099B202FB01614E
S21400DDF01E0C0B0C02FB063389B2013001EB03410B
S21400DE0085424CF8041B4FEA1346ECDC0EB3A368BD
S21400DE10AB4219DC616838460131FFF7ADFF80463A
S21400DE2028B902460C4B0D48B52100F0E1FF2269E7
S21400DE30023204F10C0192000C30FFF78DFF2146F0
S21400DE403846FFF7BEFF444604EB850301355E61A6
S21400DE5025612046BDE8F081D1FE000029FF0000C4
S21400DE60020C12040346CAB90304102013F07F4FB5
S21400DE7004BF1B02083013F0704F04BF1B010430B0
S21400DE8013F0404F04BF9B000230002B05DB13F05D
S21400DE90804F00F1010008BF202070470020E5E712
S21400DEA00368024613F007000BD0D90721D4980761
S21400DEB049BF5B089B08012013605CBF136002200B
S21400DEC0704799B209B91B0C1020D9B209B90830AD
S21400DED01B0A190704BF1B090430990704BF9B08D7
S21400DEE00230D90703D45B0800F1010003D01360A9
S21400DEF070470020704720207047000010B50C4681
S21400DF000121FFF739FF024628B9054B05484FF4B3
S21400DF10A07100F06DFF01234461036110BD00BFD6
S21400DF20D1FE000029FF00002DE9F04F91460A6956
S21400DF30D9F810309A42B8BF0B460C46BCBF4C46C8
S21400DF4099462769D9F810A0A368616807EB0A0606
S21400DF50B34285B0B8BF0131FFF70EFF30B90246B5
S21400DF60434B444840F25D1100F042FF00F11405B7
S21400DF7005EB86082B460022434521D304F1140303
S21400DF8003EB870709F1140303EB8A0202923A1B9C
S21400DF90153A22F00302043204F115018F4238BF0D
S21400DFA004220192029A03939A420CD8002E03DDB3
S21400DFB058F8043D002B59D0066105B0BDE8F08F37
S21400DFC043F8042BD8E7B3F800A0BAF1000F23D02B
S21400DFD004F1140EA9464FF0000C5EF8042BD9F895
S21400DFE000101FFA82FB89B20AFB0B116144D9F8B4
S21400DFF000C0120C4FEA1C4C0AFB02C202EB114294
S21400E00089B241EA0241774549F8041B4FEA124CAF
S21400E010E3D8019A45F802C0039AB2F80290043396
S21400E020B9F1000F20D0296804F1140CAE464FF069
S21400E030000ABCF800B0BEF8022009FB0B2292448E
S21400E04089B241EA0A414EF8041B5CF8042BBEF87C
S21400E0500010120C09FB021101EB1A4167454FEA4A
S21400E060114AE6D8019AA95004359BE7013E9DE780
S21400E070D1FE000029FF00002DE9F843154612F0F6
S21400E080030206460F4607D01A4C013A002354F8FE
S21400E0902220FFF79FFE0746AD1027D0B46C44B988
S21400E0A040F271213046FFF729FF0023B064044692
S21400E0B003604FF00009EB070AD539462246304682
S21400E0C0FFF732FF394680463046FFF77AFE47466E
S21400E0D06D100BD0206838B9224621463046FFF72F
S21400E0E023FF2060C0F800900446E4E73846BDE809
S21400E0F0F88300BF580001002DE9F0470C46496838
S21400E100236903EB6218A368074691464FEA621A32
S21400E11008F10106B3420BDB3846FFF72DFE054635
S21400E12048B902462A4B2B4840F2D91100F060FE4F
S21400E13001315B00EEE7002300F1140100F110024C
S21400E1401846534537DB20692AEAEA7A04F11403B5
S21400E15019F01F0901EB8A0103EB80002FD0C9F1EB
S21400E160200E8A464FF0000C1A6802FA09F242EABC
S21400E1700C024AF8042B53F8042B984222FA0EFCA1
S21400E180F2D8031B153B23F00303043304F11502F6
S21400E190904238BF042341F803C0BCF1000F01D001
S21400E1A008F10206013E38462E612146FFF709FEB9
S21400E1B02846BDE8F08742F8040F0133C1E704396A
S21400E1C053F8042B41F8042F9842F9D8EAE700BF29
S21400E1D0D1FE000029FF00000A6903460069801A84
S21400E1E030B50DD11433143103EB820401EB8201F8
S21400E1F054F8045D51F8042D954202D004D3012052
S21400E20030BDA342F4D3FBE74FF0FF30F8E7000041
S21400E2102DE9F84F0D460746114628461446FFF7E7
S21400E220DBFF061E11D131463846FFF7A5FD024634
S21400E23028B9394B40F23221384800F0D9FD012385
S21400E240C0E904361046BDE8F88FA4BF23462C4626
S21400E25038466168A6BF1D4600260126FFF78CFDDE
S21400E260024618B92C4B4FF41071E5E72769C660D3
S21400E2702E6904F1140005F1140902F1140E00EBE6
S21400E280870C09EB86061034F246002159F8043B49
S21400E29054F804BF1FFA83F811FA8BF11B0CA1EB9C
S21400E2A00808C3EB1B4303EB28431FFA88F819142E
S21400E2B04E4548EA03434AF8043BE7D8731B153B30
S21400E2C023F0030304331535AE4238BF0423184445
S21400E2D073449E46064666450ED30CF10301091AA2
S21400E2E021F003010338844538BF0021194451F852
S21400E2F0043D7BB11761A5E756F8048B11FA88F444
S21400E300251405EB1845A4B244EA05444EF8044B20
S21400E3102914E0E7013FEAE7D1FE000029FF0000EC
S21400E3202DE9F3410121DDE9087690461D46FFF709
S21400E33023FD044630B90246254B264840F20A31F2
S21400E34000F056FDC5F31303C5F30A552DBB019324
S21400E350B8F1000326D068460093FFF7A1FD0099A8
S21400E360F0B1019AC0F1200302FA03F30B43C24056
S21400E37063610192019BA361002B14BF022101215E
S21400E3802161C5B1A5F233450544C0F135003D60B5
S21400E3903060204602B0BDE8F08143F48013D6E733
S21400E3A06161E7E701A8FFF77BFD019B636101213F
S21400E3B021612030E5E704EB8103A0F232403860AB
S21400E3C01869FFF74DFDC0EB41113160E1E700BF72
S21400E3D0D1FE000029FF000038B5064D0023044694
S21400E3E008462B6001F028FB431C02D12B6803B1C2
S21400E3F0236038BD5800002010B50C46B1F90E1049
S21400E40000F08AFF0028ABBF236DA3891B1823F4F6
S21400E4108053ACBF2365A38110BD2DE9F0411F4694
S21400E4208B89DB0505460C46164605D5B1F90E1058
S21400E4300223002200F044FFA389B4F90E1023F44F
S21400E4408053A38132463B462846BDE8F04100F0A3
S21400E450BDBC10B50C46B1F90E1000F031FF431CE0
S21400E460A38915BF206523F4805343F48053A3810A
S21400E47018BFA38110BDB1F90E1000F00BBD2DE939
S21400E480F84F936880460F4614461BB953601846EB
S21400E490BDE8F88F0B6E9D0420D51568083555E944
S21400E4A002B64FF000094FEA960ACA450BDCA06890
S21400E4B026F00306801BA06008350028EFD1002355
S21400E4C0C4E90133E4E75BF829103A46404600F019
S21400E4D07EFD431CF3D009F10109E6E700F098FD44
S21400E4E0EDE700002DE9F04FA9B0894601921C46E1
S21400E4F01E46834618B1836B0BB9FFF705F8B9F9CA
S21400E5000C309F0409D443F40053A9F80C30D9F812
S21400E510603023F40053C9F86030B9F80C301D079A
S21400E52015D5D9F8103093B1B9F80C3003F01A03AA
S21400E5300A2B19D1B9F90E30002B15DB019A2346A8
S21400E5404946584629B0BDE8F04F00F0FBBB4946A7
S21400E5505846FEF721F80028E6D04FF0FF33039325
S21400E560039829B0BDE8F08F0023CDE90C3318AD31
S21400E5700B9505930393019B1C4613F8012B0AB1D8
S21400E580252AF9D1019BE71A0DD0C5E900370D9B66
S21400E5903B440D930C9B0133072B0C932EDC083564
S21400E5A0039B3B4403932378002B00F092834FF0A9
S21400E5B0000300218DF827304FF0FF33621C0093D4
S21400E5C00C4602918A460A2712F8013B0192782BE4
S21400E5D006DC4E2B20DC392B00F38A801F2B4BDC0D
S21400E5E009B18DF82740002B00F073838DF8383082
S21400E5F04FF000038DF82730374610E10BAA494646
S21400E6005846FFF73CFF002840F04B8318ADC7E79D
S21400E61001212B24019AD7E7A3F14F02292A6AD8B1
S21400E620DFE812F0370169006900690069006900D7
S21400E630590269006900740269006900690069008E
S21400E640690069006900690069006900F4008C00CF
S21400E650690069006900E4008C0069006900E70051
S21400E66069001B0139016801EE0069007A01690042
S21400E6705B02690069006D00A3F12002192A3AD8EE
S21400E68001A050F822F000BF6DE70000F7E600009A
S21400E690F7E6000079E70000F7E60000F7E600007E
S21400E6A0F7E60000F7E60000F7E60000F7E60000F1
S21400E6B07FE7000011E60000F7E600008FE70000A5
S21400E6C095E70000F7E60000C9E70000CFE7000086
S21400E6D0CFE70000CFE70000CFE70000CFE700005D
S21400E6E0CFE70000CFE70000CFE70000CFE700004D
S21400E6F0442B00F09A8000293FF478AF71E709B107
S21400E7008DF82740834A05921AF0200400F0038211
S21400E710073626F007021746546857F8086B1AF0B3
S21400E720010F00F0F58056EA04021FBF30228DF874
S21400E73028208DF829304AF0020AE9E009B18DF860
S21400E74027401AF0200F76D0073626F007031F461C
S21400E7505C6857F8086B002C06DA76424FF02D03FB
S21400E76064EB44048DF827300123A3E0002C7FF4EB
S21400E77051AF012120244DE74AF0010A4AE756F836
S21400E780043B0293002BBFF645AF5B4202934AF070
S21400E790040A3FE7019A12F8013B2A2B11D156F8DA
S21400E7A0040B40EAE073CDE9003233E7009B07FB39
S21400E7B00303009312F8013BA3F130000928F5D9B2
S21400E7C004E700200090F7E74AF0800A22E70020DE
S21400E7D0019A02900298303B07FB0033029312F82E
S21400E7E0013BA3F130000928F4D9EFE64AF0400ACD
S21400E7F010E7019B1B786C2B05D1019B013301931D
S21400E8004AF0200A06E74AF0100A03E7374657F8A8
S21400E810043B8DF838304FF000038DF82730012385
S21400E820009300260DF138088DE009B18DF82740D9
S21400E8304AF0100A85E71AF0100F06F1040702D016
S21400E8403668F41787E71AF0400F346803D026B20C
S21400E85044F3C0347FE72646F3E709B18DF8274036
S21400E86037461AF0200F57F8043B06D0039A039950
S21400E870D217C3E900123E467DE61AF0100F02D00A
S21400E880039A1A60F7E71AF0400FF9D0039A1A8035
S21400E890F1E74AF0100A1AF020041ED0073626F0D8
S21400E8A007031F465C6857F8086B00234FF000020A
S21400E8B08DF82720009A013200F014822AF0800298
S21400E8C0049256EA040240F01382009A002A00F0EE
S21400E8D06281012B40F00F822EE11AF0100106F142
S21400E8E0040701D03668E0E71AF04004FAD036880C
S21400E8F00C46DAE7302337468DF8283078238DF833
S21400E900293057F8046B034B059300244AF0020A9B
S21400E9100223CBE791FE00004FF000038DF827306E
S21400E920009B3746581C57F8048B00F0CF801A46D9
S21400E93000214046FBF764FE002800F03781A0EB7C
S21400E940080300930026009BB342B8BF33460493E7
S21400E9509DF8273013B1049B013304931AF0020389
S21400E96006931EBF049B023304931AF08403079396
S21400E9701FD1029B049A9C1A002C1ADDDDE90C328A
S21400E980A8482860102C03F1010305F1080100F3E4
S21400E9900F816C60072B1444CDE90C3440F31A81C8
S21400E9A00BAA49465846FFF76AFD002840F07981D1
S21400E9B018AD9DF8273073B10DF127020C9B2A6025
S21400E9C001226A600D9A01330132072BCDE90C3221
S21400E9D000F302810835069B6BB10AAA0C9B2A60DD
S21400E9E002226A600D9A01330232072BCDE90C32FF
S21400E9F000F3FB800835079B802B1FD1029B049AEF
S21400EA009C1A002C1ADDDDE90C3287482860102C91
S21400EA1003F1010305F1080100F3F0806C60072B99
S21400EA201444CDE90C3440F3FB800BAA4946584603
S21400EA30FFF725FD002840F0348118AD009BF41A3E
S21400EA40002C1ADD784E2E60DDE90C32102C03F116
S21400EA50010305F1080100F3EB806C60072B1444FA
S21400EA60CDE90C3440F3F5800BAA49465846FFF72B
S21400EA7006FD002840F0158118AD009B0D986B60D0
S21400EA8018440C9BC5F800800133072B0D900C939F
S21400EA9000F3E18005F108031AF0040F40F0E3806C
S21400EAA0DDE9022304998A42ACBF9B185B180393E6
S21400EAB00D9B3BB10BAA49465846FFF7E0FC0028E1
S21400EAC040F0EF8000230C9318ADD4E64046FBF7E9
S21400EAD0E7FD009036E74AF0100A1AF0200408D046
S21400EAE0073626F007031F465C6857F8086B0123B5
S21400EAF0DCE61AF0100106F1040701D03668F6E7E6
S21400EB001AF04004FAD036880C46F0E709B18DF8C2
S21400EB102740464AF7E51AF0100106F1040701D02F
S21400EB203668FCE51AF04004FAD036880C46F6E55E
S21400EB300A2E74F1000305D230368DF85F600DF1B1
S21400EB405F08F4E00DF16008304621460A220023F3
S21400EB50FCF742FA303208F8012D002330462146F1
S21400EB600A220696FCF738FA069BA2460A2B7AF18A
S21400EB70000306460C46E7D2D9E006F00F03059AD6
S21400EB803609D35C08F8013D46EA0476240956EABD
S21400EB900403F2D1CBE033B91AF0010F03D03023CF
S21400EBA08DF85F30CBE70DF16008C0E00646CAE698
S21400EBB010200244072BCDE90C32686007DD0BAA53
S21400EBC049465846FFF75BFC00286AD118A9103C56
S21400EBD00D46D3E60D46ECE60BAA49465846FFF727
S21400EBE04EFC00285DD118ADF5E60BAA49465846FE
S21400EBF0FFF745FC002854D118ADFCE6102002446F
S21400EC00072BCDE90C32686007DD0BAA494658464B
S21400EC10FFF735FC002844D118A9103C0D46F2E653
S21400EC200D460BE7640001007400010080FE000042
S21400EC3010200244072BCDE90C32686006DD0BAAD3
S21400EC4049465846FFF71BFC58BB18A9103C0D4612
S21400EC50F9E60D4611E70BAA49465846FFF70FFCA2
S21400EC60F8B918AB18E7029A0499541A002C7FF7E3
S21400EC7017AF334E1025DDE90C21102C02F10102EE
S21400EC801E6014DC5C60072A0C44CDE90C247FF778
S21400EC9007AF0BAA49465846FFF7F1FB00283FF49A
S21400ECA0FFAEB9F80C305B067FF55AAC55E4103170
S21400ECB0072ACDE90C215D6002DC0833103CDAE758
S21400ECC00BAA49465846FFF7DAFB0028E9D118ABED
S21400ECD0F4E70D9B002BE4D00BAA49465846FFF7F5
S21400ECE0CEFBDEE756EA0402CDF810A03FF4F1AD05
S21400ECF0012B3FF41DAF022B0DF160083FF43DAF32
S21400ED0006F00703F60846EA4476E408303356EA87
S21400ED100401424608F8013DF2D10499C90706D518
S21400ED20302B04D0302308F8013CA2F1020818A8C2
S21400ED30A0EB0803009EDDF810A0009303E600BFDA
S21400ED406400010070B50C468989ADF58D6D21F023
S21400ED500201ADF81010216E1991E189ADF812107C
S21400ED60E1690891616A0A911AA9019105914FF427
S21400ED708061039106910021079101A90646FFF7DD
S21400ED80B1FB051E07DB01A93046FEF781FB002814
S21400ED9018BF4FF0FF35BDF810305B0648BFA3899B
S21400EDA0284644BF43F04003A3810DF58D6D70BD2A
S21400EDB00346084641B1FF2A04D98A221A604FF05A
S21400EDC0FF3070470A7001207047000038B5074DC5
S21400EDD004460846114600222A601A4600F0D7FD6F
S21400EDE0431C02D12B6803B1236038BD58000020B5
S21400EDF01FB514461A46094B1B680546D8684CB121
S21400EE00074B0091CDE9013406492B4600F08CF8FB
S21400EE1000F098FC044B1C46F3E700BF1C85FF1F60
S21400EE208400010091000100BF000100002301469C
S21400EE301A46184600F08EBC10B55143FEF740FD4A
S21400EE40044698B150F8042C22F00302043A242A0F
S21400EE501BD8132A17D900211B2AC0E9001107D88E
S21400EE6000F108030022C3E900229A60204610BD84
S21400EE70242AC0E9021111BF00F11003016100F15C
S21400EE8018034161EEE70346ECE70021FCF746FB7A
S21400EE90ECE7000038B5064D0023044608462B6014
S21400EEA000F0A2FD431C02D12B6803B1236038BDDD
S21400EEB05800002070B505460C4611B900263046AD
S21400EEC070BD18B1836B0BB9FEF71EFBB4F90C309E
S21400EED0002BF3D021462846FEF750FAE36A064692
S21400EEE033B1E169284698470028B8BF4FF0FF368F
S21400EEF0A3891B0603D521692846FEF78BFB216BE9
S21400EF0041B104F14003994202D02846FEF782FB45
S21400EF1000232363616C21B12846FEF77BFB0023A8
S21400EF2063640023A381CAE70EB403B5014603ABAE
S21400EF30054853F8042B00680193FFF7D3FA02B094
S21400EF405DF804EB03B070471C85FF1F2DE9F743FF
S21400EF5080460E461546FEF741FC012804461BD1A6
S21400EF60731EFE2B18D88DF8046000270DF10409D7
S21400EF70A74220D0AB6817F80910013B002BAB6006
S21400EF8004DAAA6993421ADB0A2918D02B685A1C9D
S21400EF902A6019700137EBE7324605F1580301A9DC
S21400EFA0404600F0B9FB421C0446DED1AB8943F074
S21400EFB04003AB810646304603B0BDE8F0832A46E0
S21400EFC0404600F05FFB431CE4D10646F3E7B2F987
S21400EFD00C3013F4005F06D143F400539381136E94
S21400EFE043F400531366FFF7B1BF000038B5074D72
S21400EFF000230446084611462B6000F062FD431CC1
S21400F00002D12B6803B1236038BD00BF5800002032
S21400F01093682DE9F74F06460C4690461BB900202C
S21400F02003B0BDE8F08F8B89180750D50B69002B0D
S21400F0304DD0A389D8F8007013F002096BD113F0F5
S21400F040010300F09B804846CA46CB46BBF1000F42
S21400F05000F0028150B95A460A215046FBF7D0FA12
S21400F060002800F0FE800130A0EB0A092068216924
S21400F0706369D9454A4628BF5A46884240F2F4801A
S21400F080A5681D44AA4240F3EF8051462A4600F088
S21400F09029F923682B44236021463046FEF7F8F909
S21400F0A0002866D1B9EB050940F0F68021463046C7
S21400F0B0FEF7EEF900285CD1D8F80820AA44ABEB9E
S21400F0C0050B551BC8F80850002DBFD1A7E72146F1
S21400F0D03046FDF761FA0028ABD04FF0FF309FE7CF
S21400F0E0D7E900B50837002DFAD055452B46E1691B
S21400F0F0D4F824C028BF53465A463046E047002876
S21400F10037DDD8F8083083442D1A181AC8F80800D6
S21400F1100028E8D183E74FF0000BDFF880A15D46BA
S21400F120E1E7D7E9009A0837BAF1000FF9D0A389CA
S21400F130A2682068990563D5524536D813F4906FB7
S21400F14033D021696569A0EB010B05EB450505EB9E
S21400F150D5750BF101026D105244954238BF154625
S21400F1605B053DD529463046FEF7AAFB48B90C2379
S21400F1703360A38943F04003A381AEE799469A46DD
S21400F180D2E75A4621690190FEF7E6FDA289019B67
S21400F19022F4906242F08002A281236165615B44A2
S21400F1A0A5EB0B0523605246A560524528BF524684
S21400F1B020680192494600F095F8A368019A9B1AC8
S21400F1C0A36023681A4455462260D8F80800A9446C
S21400F1D0AAEB050A451BC8F80850002DA4D11EE767
S21400F1E02A46304600F0AAF803460028D5D1216901
S21400F1F03046FEF70FFAA38923F08003A381B6E713
S21400F2002369834202D36169514515D9524528BF07
S21400F21052464946154600F065F8A36822685B1B0F
S21400F2202A44A3602260002BCFD121463046FEF749
S21400F2302FF90028C9D09CE76FF000439A4538BFE5
S21400F2405346656A93FBF1F34A464B433046E16901
S21400F250A847051EB9DC8CE7D7E900AB00200837C5
S21400F260F4E60BF1010901E7934208DC656AE169FF
S21400F27052463046A847051E3FF714AF79E7514679
S21400F280019200F02FF8019AA3689B1AA3602368E6
S21400F29013442360154605E701200DE700FCFF7FB9
S21400F2A038B5064D0023044608462B6000F07CFD6A
S21400F2B0431C02D12B6803B1236038BD58000020E0
S21400F2C038B5074D04460846114600222A601A46FD
S21400F2D000F04BFB431C02D12B6803B1236038BD02
S21400F2E058000020884210B501EB020402D984427F
S21400F2F0234607D8431EA14208D011F8012B03F875
S21400F300012FF8E7024401468A4200D110BD13F8E7
S21400F310014D02F8014DF7E738B5074D044608469B
S21400F320114600222A601A4600F0C9FA431C02D190
S21400F3302B6803B1236038BD580000202DE9F74F35
S21400F3400C468146114624B903B0BDE8F04FFEF7DF
S21400F350B7BA0192FEF70EFD019901F10B08B8F15C
S21400F360160F0BD938F007080AD50C23C9F8003059
S21400F3704FF0000B584603B0BDE8F08F4FF0100872
S21400F3808845F2D354F8045C25F00306B045A4F192
S21400F390080A40F36E819B4AD2F808C00AEB0603BF
S21400F3A09C455A6805D022F0010018444068C707FB
S21400F3B027D422F003029C4506EB020719D108F178
S21400F3C01000B8421FDC0AEB08038E4AA7EB0807BA
S21400F3D047F0010793605F6054F8043C03F00103B4
S21400F3E043EA080344F8043C4846FEF7C4FCA34638
S21400F3F0C0E7B84507DCD3E90232DA6093605546C9
S21400F4007FE000221346E80700F1E58054F8085C28
S21400F410AAEB0505686820F0030000EB060B002B3E
S21400F42000F0A5809C4502EB0B074AD108F11003BB
S21400F430BB4200F39C80AB46EB685BF8082FD360BA
S21400F4409A60321F242A37D8132A33D92368AB6030
S21400F4506368EB601B2A1BD8083405F1100322688A
S21400F4601A6062685A60A2689A6005EB0803654AEB
S21400F470A7EB080747F0010793605F606B6803F02F
S21400F480010343EA08036B604846FEF774FC71E725
S21400F490A3682B61E3686B61242A01BF2369AB6113
S21400F4A06269EA6119BF103405F1180305F12003FB
S21400F4B01834D4E75B46D2E721465846FFF712FFDA
S21400F4C0D3E7B84553DCD3E902322846DA609360C6
S21400F4D050F8082FEB68D3609A60321F242A42D86F
S21400F4E0132A08D92368AB606368EB601B2A28D808
S21400F4F0083405F110002368036063684360A3685E
S21400F50083606B68A7EB08000F2803F0010305EB88
S21400F510070240F2B08005EB080148EA030340F01A
S21400F52001006B604860536843F001035360083184
S21400F5304846FEF76FF84846FEF71DFC05F1080B37
S21400F54018E7A3682B61E3686B61242A01BF23696F
S21400F550AB616369EB6119BF103405F1180005F162
S21400F56020001834C7E72146FFF7BCFEC9E7D84598
S21400F57031DC2846EB6850F8082FD3609A60321FBB
S21400F580242A24D8132A08D92368AB606368EB6062
S21400F5901B2A0AD8083405F1100023680360636844
S21400F5A04360A36883605F46ABE7A3682B61E368AC
S21400F5B06B61242A01BF2369AB616369EB6119BFE4
S21400F5C0103405F1180005F120001834E5E721464F
S21400F5D0FFF788FEE7E74846FEF772F983460028FD
S21400F5E03FF452AF54F8043C23F001035344A0F117
S21400F5F00802934208D150F8047C27F003073744EA
S21400F600FDE600BFA48AFF1F321F242A2DD8132A26
S21400F61028D923680360636843601B2A0ED804F168
S21400F620080200F108031168196051685960926871
S21400F6309A6021464846FDF7EDFF25E7A3688360FC
S21400F640E368C360242A01BF2369036161694161DD
S21400F65019BF04F1100200F1100304F1180200F1C2
S21400F6601803E0E703462246DDE72146FFF73AFEA9
S21400F670DFE73746C3E61F436F60536843F0010376
S21400F680536058E7F8B50E461446054618B1836B26
S21400F6900BB9FDF739FFA369A360A389190729D51C
S21400F6A023693BB3B4F90C30F6B29A0437462AD530
S21400F6B023682069181A6369834204DC21462846B9
S21400F6C0FDF7E6FEE0B9A368013BA36023685A1C79
S21400F6D022601E706269431C9A4204D0A389DB072D
S21400F6E006D50A2E04D121462846FDF7D1FE38B9A4
S21400F6F03846F8BD21462846FCF74EFF0028D1D0F4
S21400F7004FF0FF37F4E743F40053A381236E23F44E
S21400F71000532366CCE70000F0B5094C85B0D4F85A
S21400F720E07005461E4609B90A4601A9B847431CBB
S21400F73001BF002333608A232B6005B0F0BD00BFF5
S21400F7403889FF1F08B5062000F060F8012000F099
S21400F75047FB0000F0B5174C2568D5F848411CB9A2
S21400F76005F5A674C5F8484165681F2D1EDCB0B1C6
S21400F77004EB85070228C7F88820D4F888614FF084
S21400F780010202FA05F246EA0206C4F88861C7F8E2
S21400F790083102BFD4F88C311343C4F88C316B1C8B
S21400F7A00235636044F825100020F0BD4FF0FF30AE
S21400F7B0FBE700BF6CFE00001F2938B504460D4667
S21400F7C004D9162303604FF0FF3038BDD0F8DC2292
S21400F7D012B152F821304BB9204600F031F82A46D3
S21400F7E001462046BDE8384000F018B8012B0AD084
S21400F7F0591C03D1162303600120E6E7002442F8D3
S21400F8002540284698470020DFE70000024B0146C7
S21400F8101868FFF7D1BF00BF1C85FF1F38B5074D1E
S21400F82000230446084611462B6000F0F7FA431CF6
S21400F83002D12B6803B1236038BD00BF58000020FA
S21400F84000F0F8B80A4B10B50446186818B1836B78
S21400F8500BB9FDF759FE132C07D8064850F834208C
S21400F860013202D000EBC40010BD0020FCE700BF50
S21400F8701C85FF1F6C000020F8B5044600F0DAFA7D
S21400F88013260546002730463946ABBE06462E6090
S21400F8902046F8BD431C01D1FFF7EEBF704730B5D8
S21400F8A085B0CDE901010392062401AD2046294624
S21400F8B0ABBE04462046FFF7EDFF05B030BD70B581
S21400F8C00E461546FFF7BEFF044630B900F0B2FA02
S21400F8D0092303604FF0FF3070BD00682A463146AA
S21400F8E0FFF7DDFF431C1FBF6368281A1B18636001
S21400F8F0F2E7F7B50C461646FFF7A4FF054640B9F3
S21400F90000F098FA092303604FF0FF34204603B056
S21400F910F0BD022E03D900F08DFA1623F3E7012E70
S21400F92012D14368E418F6D42B680A26CDE90034D1
S21400F9306F4630463946ABBE06463046FFF7AAFF4E
S21400F9400028E1DB6C60E1E7022EEDD1036800934E
S21400F9500C266F4630463946ABBE06463046FFF7A5
S21400F96099FF431CD0D00444DEE7FFF7C2BF30B592
S21400F97085B0CDE901010392052401AD2046294654
S21400F980ABBE04462046FFF785FF05B030BD70B518
S21400F9900E461546FFF756FF044630B900F04AFA01
S21400F9A0092303604FF0FF3070BD00682A463146D9
S21400F9B0FFF7DDFF031EF5DB6268E81A0244AB4280
S21400F9C06260F1D1BDE870400020FFF755BF37B543
S21400F9D00224019001AD20462946ABBE04462046CF
S21400F9E0FFF758FF03B030BD38B50546FFF72AFFCE
S21400F9F0044630B900F01EFA092303604FF0FF30CA
S21400FA0038BD013D012D09D8094B9A681B699A42F9
S21400FA1004D14FF0FF3303600020F1E72068FFF7C2
S21400FA20D6FF0028ECD14FF0FF332360E8E700BF95
S21400FA306C000020012070470D4A116810B503467F
S21400FA4009B90C4911601068694603448B4206D810
S21400FA5009490A4C0968A14208D08B4206D900F031
S21400FA60E9F90C2303604FF0FF3010BD1360FCE78C
S21400FA705C00002010010020B48EFF1FADDEFECA21
S21400FA8070B50C46FFF7DEFE054630B900F0D2F939
S21400FA90092303604FF0FF3070BD636843F40053E2
S21400FAA063604FF48063A3640C2630462946ABBEE1
S21400FAB005462846FFF7EEFE431C1CBF20610020CB
S21400FAC0EAE70B4610B50021044658221846FBF715
S21400FAD025FD01462046BDE81040FFF7D1BF38B5EA
S21400FAE00D460446582200212846FBF717FD2046FF
S21400FAF0002100F011F8431C04460BD06B6843F459
S21400FB0001436B602946FFF7BBFF05462046FFF71B
S21400FB106BFF2C46204638BD2DE9F043DFF8A88061
S21400FB2097B007460E46002558F83540611C37D07A
S21400FB300135142DF8D100F07DF9182303604FF03D
S21400FB40FF343DE0C6F3004440F20163B20748BF0D
S21400FB5044F002041E4218BF44F00404330748BFB2
S21400FB6024F00404384648BF44F008040097FAF727
S21400FB7097FDCDE90140012420464946ABBE044628
S21400FB80002C08DB48F8354008EBC5080023C8F809
S21400FB9004302C4614E02046FFF76EFE04460FE0C5
S21400FBA006F42063B3F5206FE946CBD149463846C4
S21400FBB0FFF795FF0130C5D000F03CF91123036034
S21400FBC0204617B0BDE8F0836C0000202DE9F7430F
S21400FBD006460F462A4800211546FFF79DFF2A468F
S21400FBE0044600213046FBF799FC631C16D02046DD
S21400FBF0FFF728FE4FF00C08814640464946ABBE4C
S21400FC0080464046FFF746FE032802DDC31EAB4291
S21400FC1008DC2046FFF7E8FE4FF0FF34204603B02E
S21400FC20BDE8F08304220DEB02012046FFF747FEF5
S21400FC300328EEDD9DF80430532BEAD19DF80530FD
